{
  "contractName": "AccessControl",
  "abi": [
    {
      "anonymous": false,
      "inputs": [
        {
          "indexed": false,
          "internalType": "address",
          "name": "newContract",
          "type": "address"
        }
      ],
      "name": "ContractUpgrade",
      "type": "event"
    },
    {
      "constant": true,
      "inputs": [],
      "name": "ceoAddress",
      "outputs": [
        {
          "internalType": "address",
          "name": "",
          "type": "address"
        }
      ],
      "payable": false,
      "stateMutability": "view",
      "type": "function"
    },
    {
      "constant": true,
      "inputs": [],
      "name": "cfoAddress",
      "outputs": [
        {
          "internalType": "address",
          "name": "",
          "type": "address"
        }
      ],
      "payable": false,
      "stateMutability": "view",
      "type": "function"
    },
    {
      "constant": true,
      "inputs": [],
      "name": "cooAddress",
      "outputs": [
        {
          "internalType": "address",
          "name": "",
          "type": "address"
        }
      ],
      "payable": false,
      "stateMutability": "view",
      "type": "function"
    },
    {
      "constant": true,
      "inputs": [],
      "name": "paused",
      "outputs": [
        {
          "internalType": "bool",
          "name": "",
          "type": "bool"
        }
      ],
      "payable": false,
      "stateMutability": "view",
      "type": "function"
    },
    {
      "constant": false,
      "inputs": [
        {
          "internalType": "address",
          "name": "_newCEO",
          "type": "address"
        }
      ],
      "name": "setCEO",
      "outputs": [],
      "payable": false,
      "stateMutability": "nonpayable",
      "type": "function"
    },
    {
      "constant": false,
      "inputs": [
        {
          "internalType": "address",
          "name": "_newCFO",
          "type": "address"
        }
      ],
      "name": "setCFO",
      "outputs": [],
      "payable": false,
      "stateMutability": "nonpayable",
      "type": "function"
    },
    {
      "constant": false,
      "inputs": [
        {
          "internalType": "address",
          "name": "_newCOO",
          "type": "address"
        }
      ],
      "name": "setCOO",
      "outputs": [],
      "payable": false,
      "stateMutability": "nonpayable",
      "type": "function"
    },
    {
      "constant": false,
      "inputs": [],
      "name": "pause",
      "outputs": [],
      "payable": false,
      "stateMutability": "nonpayable",
      "type": "function"
    },
    {
      "constant": false,
      "inputs": [],
      "name": "unpause",
      "outputs": [],
      "payable": false,
      "stateMutability": "nonpayable",
      "type": "function"
    }
  ],
  "bytecode": "0x60806040526000600260146101000a81548160ff02191690831515021790555034801561002b57600080fd5b506107848061003b6000396000f3fe608060405234801561001057600080fd5b50600436106100935760003560e01c80633f4ba83a116100665780633f4ba83a146101b45780634e0a3379146101be5780635c975abb146102025780638456cb5914610224578063b047fb501461022e57610093565b80630519ce79146100985780630a0f8168146100e257806327d7874c1461012c5780632ba73c1514610170575b600080fd5b6100a0610278565b604051808273ffffffffffffffffffffffffffffffffffffffff1673ffffffffffffffffffffffffffffffffffffffff16815260200191505060405180910390f35b6100ea61029e565b604051808273ffffffffffffffffffffffffffffffffffffffff1673ffffffffffffffffffffffffffffffffffffffff16815260200191505060405180910390f35b61016e6004803603602081101561014257600080fd5b81019080803573ffffffffffffffffffffffffffffffffffffffff1690602001909291905050506102c3565b005b6101b26004803603602081101561018657600080fd5b81019080803573ffffffffffffffffffffffffffffffffffffffff169060200190929190505050610399565b005b6101bc610470565b005b610200600480360360208110156101d457600080fd5b81019080803573ffffffffffffffffffffffffffffffffffffffff1690602001909291905050506104ff565b005b61020a6105d6565b604051808215151515815260200191505060405180910390f35b61022c6105e9565b005b610236610729565b604051808273ffffffffffffffffffffffffffffffffffffffff1673ffffffffffffffffffffffffffffffffffffffff16815260200191505060405180910390f35b600160009054906101000a900473ffffffffffffffffffffffffffffffffffffffff1681565b6000809054906101000a900473ffffffffffffffffffffffffffffffffffffffff1681565b6000809054906101000a900473ffffffffffffffffffffffffffffffffffffffff1673ffffffffffffffffffffffffffffffffffffffff163373ffffffffffffffffffffffffffffffffffffffff161461031c57600080fd5b600073ffffffffffffffffffffffffffffffffffffffff168173ffffffffffffffffffffffffffffffffffffffff16141561035657600080fd5b806000806101000a81548173ffffffffffffffffffffffffffffffffffffffff021916908373ffffffffffffffffffffffffffffffffffffffff16021790555050565b6000809054906101000a900473ffffffffffffffffffffffffffffffffffffffff1673ffffffffffffffffffffffffffffffffffffffff163373ffffffffffffffffffffffffffffffffffffffff16146103f257600080fd5b600073ffffffffffffffffffffffffffffffffffffffff168173ffffffffffffffffffffffffffffffffffffffff16141561042c57600080fd5b80600260006101000a81548173ffffffffffffffffffffffffffffffffffffffff021916908373ffffffffffffffffffffffffffffffffffffffff16021790555050565b6000809054906101000a900473ffffffffffffffffffffffffffffffffffffffff1673ffffffffffffffffffffffffffffffffffffffff163373ffffffffffffffffffffffffffffffffffffffff16146104c957600080fd5b600260149054906101000a900460ff166104e257600080fd5b6000600260146101000a81548160ff021916908315150217905550565b6000809054906101000a900473ffffffffffffffffffffffffffffffffffffffff1673ffffffffffffffffffffffffffffffffffffffff163373ffffffffffffffffffffffffffffffffffffffff161461055857600080fd5b600073ffffffffffffffffffffffffffffffffffffffff168173ffffffffffffffffffffffffffffffffffffffff16141561059257600080fd5b80600160006101000a81548173ffffffffffffffffffffffffffffffffffffffff021916908373ffffffffffffffffffffffffffffffffffffffff16021790555050565b600260149054906101000a900460ff1681565b6000809054906101000a900473ffffffffffffffffffffffffffffffffffffffff1673ffffffffffffffffffffffffffffffffffffffff163373ffffffffffffffffffffffffffffffffffffffff1614806106915750600160009054906101000a900473ffffffffffffffffffffffffffffffffffffffff1673ffffffffffffffffffffffffffffffffffffffff163373ffffffffffffffffffffffffffffffffffffffff16145b806106e95750600260009054906101000a900473ffffffffffffffffffffffffffffffffffffffff1673ffffffffffffffffffffffffffffffffffffffff163373ffffffffffffffffffffffffffffffffffffffff16145b6106f257600080fd5b600260149054906101000a900460ff161561070c57600080fd5b6001600260146101000a81548160ff021916908315150217905550565b600260009054906101000a900473ffffffffffffffffffffffffffffffffffffffff168156fea265627a7a723158208f161f1ce2a9af1cd718bf27b4f0cdeb4dc60b1884a676ddd3c750f53f21636b64736f6c63430005100032",
  "source": "pragma solidity >=0.4.22 <0.9.0;\n\n/// @title A contract for managing special access privileges.\n/// @author Heriberto Prieto\ncontract AccessControl {\n\n  /// @dev Heriberto Prieto\n  event ContractUpgrade(address newContract);\n\n  // The addresses of the accounts (or contracts) that can execute actions within each roles;\n  address public ceoAddress;\n  address public cfoAddress;\n  address public cooAddress;\n\n  // The addresses of the accounts is paused. When that is true, most actions are blocked.\n  bool public paused = false;\n\n  /// @dev Access modifier for CEO-only functionality\n  modifier onlyCEO() {\n    require(msg.sender == ceoAddress);\n    _;\n  }\n\n  /// @dev Access modifier for CFO-only functionality\n  modifier onlyCFO() {\n    require(msg.sender == cfoAddress);\n    _;\n  }\n\n  /// @dev Access modifier for COO-only functionality\n  modifier onlyCOO() {\n    require(msg.sender == cooAddress);\n    _;\n  }\n\n  modifier onlyCLevel() {\n    require(\n        msg.sender == ceoAddress ||\n        msg.sender == cfoAddress ||\n        msg.sender == cooAddress\n    );\n    _;\n  }\n\n  /// @dev Assigns a new address to act as the CEO. Only available to the current CEO.\n  /// @param _newCEO The address of the new CEO.\n  function setCEO(address _newCEO) external onlyCEO {\n    require(_newCEO != address(0));\n\n    ceoAddress = _newCEO;\n  }\n\n  /// @dev Assigns a new address to act as the CFO. Only available to the current CEO.\n  /// @param _newCFO The address of the new CFO.\n  function setCFO(address _newCFO) external onlyCEO {\n    require(_newCFO != address(0));\n\n    cfoAddress = _newCFO;\n  }\n\n  /// @dev Assigns a new address to act as the COO. Only available to the current CEO.\n  /// @param _newCOO The address of the new COO.\n  function setCOO(address _newCOO) external onlyCEO {\n    require(_newCOO != address(0));\n\n    cooAddress = _newCOO;\n  }\n\n  /*** Pausable functionality adapted from OpenZeppelin ***/\n\n  /// @dev Modifier to allow actions only when the contract IS NOT paused.\n  modifier whenNotPaused() {\n    require(!paused);\n    _;\n  }\n\n  /// @dev Modifier to allow actions only when the contract IS paused.\n  modifier whenPaused() {\n    require(paused);\n    _;\n  }\n\n  /// @dev Called by any \"C-Level\" role to pause the contract. Used only when\n  ///  a bug or exploited is detected and we need to limit damage.\n  function pause() external onlyCLevel whenNotPaused {\n    paused = true;\n  }\n\n  /// @dev Unpauses the smart contract. Can only be called by the CEO, since\n  ///  one reason we may pause the contract is when CFO or COO accounts are\n  ///  compromised.\n  /// @notice This is public rather than external so it can be called by\n  ///  derived contracts.\n  function unpause() public onlyCEO whenPaused {\n    // can't pause if contract was upgraded\n    paused = false;\n  }\n}\n",
  "sourcePath": "/Users/hprieto/Dev/crypto_sneakers/contracts/AccessControl.sol",
  "compiler": {
    "name": "solc",
    "version": "0.5.16+commit.9c3226ce.Emscripten.clang"
  },
  "schemaVersion": "3.3.4",
  "updatedAt": "2021-03-27T01:53:49.438Z",
  "devdoc": {
    "author": "Heriberto Prieto",
    "methods": {
      "pause()": {
        "details": "Called by any \"C-Level\" role to pause the contract. Used only when  a bug or exploited is detected and we need to limit damage."
      },
      "setCEO(address)": {
        "details": "Assigns a new address to act as the CEO. Only available to the current CEO.",
        "params": {
          "_newCEO": "The address of the new CEO."
        }
      },
      "setCFO(address)": {
        "details": "Assigns a new address to act as the CFO. Only available to the current CEO.",
        "params": {
          "_newCFO": "The address of the new CFO."
        }
      },
      "setCOO(address)": {
        "details": "Assigns a new address to act as the COO. Only available to the current CEO.",
        "params": {
          "_newCOO": "The address of the new COO."
        }
      },
      "unpause()": {
        "details": "Unpauses the smart contract. Can only be called by the CEO, since  one reason we may pause the contract is when CFO or COO accounts are  compromised."
      }
    },
    "title": "A contract for managing special access privileges."
  },
  "userdoc": {
    "methods": {
      "unpause()": {
        "notice": "This is public rather than external so it can be called by  derived contracts."
      }
    }
  }
}