{
  "contractName": "ERC721Metadata",
  "abi": [
    {
      "constant": true,
      "inputs": [
        {
          "internalType": "uint256",
          "name": "_tokenId",
          "type": "uint256"
        },
        {
          "internalType": "string",
          "name": "",
          "type": "string"
        }
      ],
      "name": "getMetadata",
      "outputs": [
        {
          "internalType": "bytes32[4]",
          "name": "buffer",
          "type": "bytes32[4]"
        },
        {
          "internalType": "uint256",
          "name": "count",
          "type": "uint256"
        }
      ],
      "payable": false,
      "stateMutability": "view",
      "type": "function"
    }
  ],
  "bytecode": "0x608060405234801561001057600080fd5b50610355806100206000396000f3fe608060405234801561001057600080fd5b506004361061002b5760003560e01c8063cb4799f214610030575b600080fd5b6100f36004803603604081101561004657600080fd5b81019080803590602001909291908035906020019064010000000081111561006d57600080fd5b82018360208201111561007f57600080fd5b803590602001918460018302840111640100000000831117156100a157600080fd5b91908080601f016020809104026020016040519081016040528093929190818152602001838380828437600081840152601f19601f820116905080830192505050505050509192919290505050610138565b6040518083600460200280838360005b8381101561011e578082015181840152602081019050610103565b505050509050018281526020019250505060405180910390f35b6101406102fe565b6000600184141561018b577f48656c6c6f20576f726c64206f6620536e65616b6572486561647321203a44008260006004811061017957fe5b602002018181525050601e90506102f7565b600284141561020b577f4920776f756c6420646566696e6974656c792063686f6f73652061206d656469826000600481106101c257fe5b6020020181815250507f756d206c656e67746820737472696e672e000000000000000000000000000000826001600481106101f957fe5b602002018181525050603190506102f6565b60038414156102f5577f4c6f72656d20697073756d20646f6c6f722073697420616d65742c206d6920658260006004811061024257fe5b6020020181815250507f737420616363756d73616e2064617069627573206175677565206c6f72656d2c8260016004811061027957fe5b6020020181815250507f2074726973746971756520766573746962756c756d2069642c206c696265726f826002600481106102b057fe5b6020020181815250507f207375736369706974207661726975732073617069656e20616c697175616d2e826003600481106102e757fe5b602002018181525050608090505b5b5b9250929050565b604051806080016040528060049060208202803883398082019150509050509056fea265627a7a7231582089c293739f8874d0ecf81b5dc68c5899aa8165325492b925de755e0d82787d2364736f6c63430005100032",
  "source": "pragma solidity >=0.4.22 <0.9.0;\n/// @title The external contract that is responsible for generating metadata for the Sneaker.\n///  it has one function that will return the data as bytes.\ncontract ERC721Metadata {\n  /// @dev Given a token Id, returns a byte array that is supposed to be converted into string.\n  function getMetadata(uint256 _tokenId, string memory) public view returns (bytes32[4] memory buffer, uint256 count) {\n    if (_tokenId == 1) {\n      buffer[0] = \"Hello World of SneakerHeads! :D\";\n      count = 30;\n    } else if (_tokenId == 2) {\n      buffer[0] = \"I would definitely choose a medi\";\n      buffer[1] = \"um length string.\";\n      count = 49;\n    } else if (_tokenId == 3) {\n      buffer[0] = \"Lorem ipsum dolor sit amet, mi e\";\n      buffer[1] = \"st accumsan dapibus augue lorem,\";\n      buffer[2] = \" tristique vestibulum id, libero\";\n      buffer[3] = \" suscipit varius sapien aliquam.\";\n      count = 128;\n    }\n  }\n}\n",
  "sourcePath": "/Users/hprieto/Dev/crypto_sneakers/contracts/ERC721Metadata.sol",
  "compiler": {
    "name": "solc",
    "version": "0.5.16+commit.9c3226ce.Emscripten.clang"
  },
  "schemaVersion": "3.3.4",
  "updatedAt": "2021-03-29T11:47:11.845Z",
  "devdoc": {
    "methods": {
      "getMetadata(uint256,string)": {
        "details": "Given a token Id, returns a byte array that is supposed to be converted into string."
      }
    },
    "title": "The external contract that is responsible for generating metadata for the Sneaker.  it has one function that will return the data as bytes."
  },
  "userdoc": {
    "methods": {}
  }
}