{
  "contractName": "SneakerOwnership",
  "abi": [
    {
      "anonymous": false,
      "inputs": [
        {
          "indexed": false,
          "internalType": "address",
          "name": "owner",
          "type": "address"
        },
        {
          "indexed": false,
          "internalType": "address",
          "name": "approved",
          "type": "address"
        },
        {
          "indexed": false,
          "internalType": "uint256",
          "name": "tokenId",
          "type": "uint256"
        }
      ],
      "name": "Approval",
      "type": "event"
    },
    {
      "anonymous": false,
      "inputs": [
        {
          "indexed": false,
          "internalType": "address",
          "name": "newContract",
          "type": "address"
        }
      ],
      "name": "ContractUpgrade",
      "type": "event"
    },
    {
      "anonymous": false,
      "inputs": [
        {
          "indexed": false,
          "internalType": "address",
          "name": "from",
          "type": "address"
        },
        {
          "indexed": false,
          "internalType": "address",
          "name": "to",
          "type": "address"
        },
        {
          "indexed": false,
          "internalType": "uint256",
          "name": "tokenId",
          "type": "uint256"
        }
      ],
      "name": "Transfer",
      "type": "event"
    },
    {
      "constant": true,
      "inputs": [],
      "name": "ceoAddress",
      "outputs": [
        {
          "internalType": "address",
          "name": "",
          "type": "address"
        }
      ],
      "payable": false,
      "stateMutability": "view",
      "type": "function"
    },
    {
      "constant": true,
      "inputs": [],
      "name": "cfoAddress",
      "outputs": [
        {
          "internalType": "address",
          "name": "",
          "type": "address"
        }
      ],
      "payable": false,
      "stateMutability": "view",
      "type": "function"
    },
    {
      "constant": true,
      "inputs": [],
      "name": "cooAddress",
      "outputs": [
        {
          "internalType": "address",
          "name": "",
          "type": "address"
        }
      ],
      "payable": false,
      "stateMutability": "view",
      "type": "function"
    },
    {
      "constant": true,
      "inputs": [
        {
          "internalType": "uint256",
          "name": "",
          "type": "uint256"
        }
      ],
      "name": "cooldowns",
      "outputs": [
        {
          "internalType": "uint32",
          "name": "",
          "type": "uint32"
        }
      ],
      "payable": false,
      "stateMutability": "view",
      "type": "function"
    },
    {
      "constant": true,
      "inputs": [],
      "name": "erc721Metadata",
      "outputs": [
        {
          "internalType": "contract ERC721Metadata",
          "name": "",
          "type": "address"
        }
      ],
      "payable": false,
      "stateMutability": "view",
      "type": "function"
    },
    {
      "constant": true,
      "inputs": [],
      "name": "name",
      "outputs": [
        {
          "internalType": "string",
          "name": "",
          "type": "string"
        }
      ],
      "payable": false,
      "stateMutability": "view",
      "type": "function"
    },
    {
      "constant": false,
      "inputs": [],
      "name": "pause",
      "outputs": [],
      "payable": false,
      "stateMutability": "nonpayable",
      "type": "function"
    },
    {
      "constant": true,
      "inputs": [],
      "name": "paused",
      "outputs": [
        {
          "internalType": "bool",
          "name": "",
          "type": "bool"
        }
      ],
      "payable": false,
      "stateMutability": "view",
      "type": "function"
    },
    {
      "constant": true,
      "inputs": [],
      "name": "secondsPerBlock",
      "outputs": [
        {
          "internalType": "uint256",
          "name": "",
          "type": "uint256"
        }
      ],
      "payable": false,
      "stateMutability": "view",
      "type": "function"
    },
    {
      "constant": false,
      "inputs": [
        {
          "internalType": "address",
          "name": "_newCEO",
          "type": "address"
        }
      ],
      "name": "setCEO",
      "outputs": [],
      "payable": false,
      "stateMutability": "nonpayable",
      "type": "function"
    },
    {
      "constant": false,
      "inputs": [
        {
          "internalType": "address",
          "name": "_newCFO",
          "type": "address"
        }
      ],
      "name": "setCFO",
      "outputs": [],
      "payable": false,
      "stateMutability": "nonpayable",
      "type": "function"
    },
    {
      "constant": false,
      "inputs": [
        {
          "internalType": "address",
          "name": "_newCOO",
          "type": "address"
        }
      ],
      "name": "setCOO",
      "outputs": [],
      "payable": false,
      "stateMutability": "nonpayable",
      "type": "function"
    },
    {
      "constant": false,
      "inputs": [
        {
          "internalType": "uint256",
          "name": "secs",
          "type": "uint256"
        }
      ],
      "name": "setSecondsPerBlock",
      "outputs": [],
      "payable": false,
      "stateMutability": "nonpayable",
      "type": "function"
    },
    {
      "constant": true,
      "inputs": [
        {
          "internalType": "uint256",
          "name": "",
          "type": "uint256"
        }
      ],
      "name": "sneakerIndexToApproved",
      "outputs": [
        {
          "internalType": "address",
          "name": "",
          "type": "address"
        }
      ],
      "payable": false,
      "stateMutability": "view",
      "type": "function"
    },
    {
      "constant": true,
      "inputs": [
        {
          "internalType": "uint256",
          "name": "",
          "type": "uint256"
        }
      ],
      "name": "sneakerIndexToOwner",
      "outputs": [
        {
          "internalType": "address",
          "name": "",
          "type": "address"
        }
      ],
      "payable": false,
      "stateMutability": "view",
      "type": "function"
    },
    {
      "constant": true,
      "inputs": [
        {
          "internalType": "string",
          "name": "",
          "type": "string"
        }
      ],
      "name": "stockXTickerToSneaker",
      "outputs": [
        {
          "internalType": "uint256",
          "name": "",
          "type": "uint256"
        }
      ],
      "payable": false,
      "stateMutability": "view",
      "type": "function"
    },
    {
      "constant": true,
      "inputs": [],
      "name": "symbol",
      "outputs": [
        {
          "internalType": "string",
          "name": "",
          "type": "string"
        }
      ],
      "payable": false,
      "stateMutability": "view",
      "type": "function"
    },
    {
      "constant": false,
      "inputs": [],
      "name": "unpause",
      "outputs": [],
      "payable": false,
      "stateMutability": "nonpayable",
      "type": "function"
    },
    {
      "constant": true,
      "inputs": [
        {
          "internalType": "bytes4",
          "name": "_interfaceID",
          "type": "bytes4"
        }
      ],
      "name": "supportsInterface",
      "outputs": [
        {
          "internalType": "bool",
          "name": "",
          "type": "bool"
        }
      ],
      "payable": false,
      "stateMutability": "view",
      "type": "function"
    },
    {
      "constant": false,
      "inputs": [
        {
          "internalType": "address",
          "name": "_contractAddress",
          "type": "address"
        }
      ],
      "name": "setMetadataAddress",
      "outputs": [],
      "payable": false,
      "stateMutability": "nonpayable",
      "type": "function"
    },
    {
      "constant": true,
      "inputs": [
        {
          "internalType": "address",
          "name": "_owner",
          "type": "address"
        }
      ],
      "name": "balanceOf",
      "outputs": [
        {
          "internalType": "uint256",
          "name": "count",
          "type": "uint256"
        }
      ],
      "payable": false,
      "stateMutability": "view",
      "type": "function"
    },
    {
      "constant": false,
      "inputs": [
        {
          "internalType": "address",
          "name": "_to",
          "type": "address"
        },
        {
          "internalType": "uint256",
          "name": "_tokenId",
          "type": "uint256"
        }
      ],
      "name": "transfer",
      "outputs": [],
      "payable": false,
      "stateMutability": "nonpayable",
      "type": "function"
    },
    {
      "constant": false,
      "inputs": [
        {
          "internalType": "address",
          "name": "_to",
          "type": "address"
        },
        {
          "internalType": "uint256",
          "name": "_tokenId",
          "type": "uint256"
        }
      ],
      "name": "approve",
      "outputs": [],
      "payable": false,
      "stateMutability": "nonpayable",
      "type": "function"
    },
    {
      "constant": false,
      "inputs": [
        {
          "internalType": "address",
          "name": "_from",
          "type": "address"
        },
        {
          "internalType": "address",
          "name": "_to",
          "type": "address"
        },
        {
          "internalType": "uint256",
          "name": "_tokenId",
          "type": "uint256"
        }
      ],
      "name": "transferFrom",
      "outputs": [],
      "payable": false,
      "stateMutability": "nonpayable",
      "type": "function"
    },
    {
      "constant": true,
      "inputs": [],
      "name": "totalSupply",
      "outputs": [
        {
          "internalType": "uint256",
          "name": "",
          "type": "uint256"
        }
      ],
      "payable": false,
      "stateMutability": "view",
      "type": "function"
    },
    {
      "constant": true,
      "inputs": [
        {
          "internalType": "uint256",
          "name": "_tokenId",
          "type": "uint256"
        }
      ],
      "name": "ownerOf",
      "outputs": [
        {
          "internalType": "address",
          "name": "owner",
          "type": "address"
        }
      ],
      "payable": false,
      "stateMutability": "view",
      "type": "function"
    },
    {
      "constant": true,
      "inputs": [
        {
          "internalType": "address",
          "name": "_owner",
          "type": "address"
        }
      ],
      "name": "tokensOfOwner",
      "outputs": [
        {
          "internalType": "uint256[]",
          "name": "ownerTokens",
          "type": "uint256[]"
        }
      ],
      "payable": false,
      "stateMutability": "view",
      "type": "function"
    },
    {
      "constant": true,
      "inputs": [
        {
          "internalType": "uint256",
          "name": "_tokenId",
          "type": "uint256"
        },
        {
          "internalType": "string",
          "name": "_preferredTransport",
          "type": "string"
        }
      ],
      "name": "tokenMetadata",
      "outputs": [
        {
          "internalType": "string",
          "name": "infoUrl",
          "type": "string"
        }
      ],
      "payable": false,
      "stateMutability": "view",
      "type": "function"
    }
  ],
  "bytecode": "0x60806040526000600260146101000a81548160ff021916908315150217905550604051806101c00160405280603c63ffffffff1663ffffffff168152602001607863ffffffff1663ffffffff16815260200161012c63ffffffff1663ffffffff16815260200161025863ffffffff1663ffffffff16815260200161070863ffffffff1663ffffffff168152602001610e1063ffffffff1663ffffffff168152602001611c2063ffffffff1663ffffffff16815260200161384063ffffffff1663ffffffff16815260200161708063ffffffff1663ffffffff16815260200161e10063ffffffff1663ffffffff1681526020016201518063ffffffff1663ffffffff1681526020016202a30063ffffffff1663ffffffff1681526020016205460063ffffffff1663ffffffff16815260200162093a8063ffffffff1663ffffffff16815250600390600e620001559291906200016f565b50600f6005553480156200016857600080fd5b506200024f565b82600e600701600890048101928215620002065791602002820160005b83821115620001d257835183826101000a81548163ffffffff021916908363ffffffff16021790555092602001926004016020816003010492830192600103026200018c565b8015620002045782816101000a81549063ffffffff0219169055600401602081600301049283019260010302620001d2565b505b50905062000215919062000219565b5090565b6200024c91905b808211156200024857600081816101000a81549063ffffffff02191690555060010162000220565b5090565b90565b612088806200025f6000396000f3fe608060405234801561001057600080fd5b50600436106101c45760003560e01c80635b8eea2c116100f957806395d89b4111610097578063b047fb5011610071578063b047fb5014610a24578063b82effce14610a6e578063bc4006f514610adc578063e17b25af14610b26576101c4565b806395d89b41146109055780639d6fac6f14610988578063a9059cbb146109d6576101c4565b806370a08231116100d357806370a08231146107ec5780637a7d4937146108445780638456cb59146108625780638462151c1461086c576101c4565b80635b8eea2c1461068d5780635c975abb1461075c5780636352211e1461077e576101c4565b806323b872dd116101665780633f4ba83a116101405780633f4ba83a146105a35780634e0a3379146105ad5780635663896e146105f157806358511bf21461061f576101c4565b806323b872dd146104ad57806327d7874c1461051b5780632ba73c151461055f576101c4565b806306fdde03116101a257806306fdde0314610374578063095ea7b3146103f75780630a0f81681461044557806318160ddd1461048f576101c4565b806301ffc9a7146101c95780630519ce791461022e5780630560ff4414610278575b600080fd5b610214600480360360208110156101df57600080fd5b8101908080357bffffffffffffffffffffffffffffffffffffffffffffffffffffffff19169060200190929190505050610b6a565b604051808215151515815260200191505060405180910390f35b610236610e38565b604051808273ffffffffffffffffffffffffffffffffffffffff1673ffffffffffffffffffffffffffffffffffffffff16815260200191505060405180910390f35b6102f96004803603604081101561028e57600080fd5b8101908080359060200190929190803590602001906401000000008111156102b557600080fd5b8201836020820111156102c757600080fd5b803590602001918460018302840111640100000000831117156102e957600080fd5b9091929391929390505050610e5e565b6040518080602001828103825283818151815260200191508051906020019080838360005b8381101561033957808201518184015260208101905061031e565b50505050905090810190601f1680156103665780820380516001836020036101000a031916815260200191505b509250505060405180910390f35b61037c610fda565b6040518080602001828103825283818151815260200191508051906020019080838360005b838110156103bc5780820151818401526020810190506103a1565b50505050905090810190601f1680156103e95780820380516001836020036101000a031916815260200191505b509250505060405180910390f35b6104436004803603604081101561040d57600080fd5b81019080803573ffffffffffffffffffffffffffffffffffffffff16906020019092919080359060200190929190505050611013565b005b61044d6110ed565b604051808273ffffffffffffffffffffffffffffffffffffffff1673ffffffffffffffffffffffffffffffffffffffff16815260200191505060405180910390f35b610497611112565b6040518082815260200191505060405180910390f35b610519600480360360608110156104c357600080fd5b81019080803573ffffffffffffffffffffffffffffffffffffffff169060200190929190803573ffffffffffffffffffffffffffffffffffffffff16906020019092919080359060200190929190505050611122565b005b61055d6004803603602081101561053157600080fd5b81019080803573ffffffffffffffffffffffffffffffffffffffff1690602001909291905050506111e5565b005b6105a16004803603602081101561057557600080fd5b81019080803573ffffffffffffffffffffffffffffffffffffffff1690602001909291905050506112bb565b005b6105ab611392565b005b6105ef600480360360208110156105c357600080fd5b81019080803573ffffffffffffffffffffffffffffffffffffffff169060200190929190505050611421565b005b61061d6004803603602081101561060757600080fd5b81019080803590602001909291905050506114f8565b005b61064b6004803603602081101561063557600080fd5b8101908080359060200190929190505050611646565b604051808273ffffffffffffffffffffffffffffffffffffffff1673ffffffffffffffffffffffffffffffffffffffff16815260200191505060405180910390f35b610746600480360360208110156106a357600080fd5b81019080803590602001906401000000008111156106c057600080fd5b8201836020820111156106d257600080fd5b803590602001918460018302840111640100000000831117156106f457600080fd5b91908080601f016020809104026020016040519081016040528093929190818152602001838380828437600081840152601f19601f820116905080830192505050505050509192919290505050611679565b6040518082815260200191505060405180910390f35b6107646116a7565b604051808215151515815260200191505060405180910390f35b6107aa6004803603602081101561079457600080fd5b81019080803590602001909291905050506116ba565b604051808273ffffffffffffffffffffffffffffffffffffffff1673ffffffffffffffffffffffffffffffffffffffff16815260200191505060405180910390f35b61082e6004803603602081101561080257600080fd5b81019080803573ffffffffffffffffffffffffffffffffffffffff169060200190929190505050611731565b6040518082815260200191505060405180910390f35b61084c61177a565b6040518082815260200191505060405180910390f35b61086a611780565b005b6108ae6004803603602081101561088257600080fd5b81019080803573ffffffffffffffffffffffffffffffffffffffff1690602001909291905050506118c0565b6040518080602001828103825283818151815260200191508051906020019060200280838360005b838110156108f15780820151818401526020810190506108d6565b505050509050019250505060405180910390f35b61090d611a08565b6040518080602001828103825283818151815260200191508051906020019080838360005b8381101561094d578082015181840152602081019050610932565b50505050905090810190601f16801561097a5780820380516001836020036101000a031916815260200191505b509250505060405180910390f35b6109b46004803603602081101561099e57600080fd5b8101908080359060200190929190505050611a41565b604051808263ffffffff1663ffffffff16815260200191505060405180910390f35b610a22600480360360408110156109ec57600080fd5b81019080803573ffffffffffffffffffffffffffffffffffffffff16906020019092919080359060200190929190505050611a6e565b005b610a2c611b1d565b604051808273ffffffffffffffffffffffffffffffffffffffff1673ffffffffffffffffffffffffffffffffffffffff16815260200191505060405180910390f35b610a9a60048036036020811015610a8457600080fd5b8101908080359060200190929190505050611b43565b604051808273ffffffffffffffffffffffffffffffffffffffff1673ffffffffffffffffffffffffffffffffffffffff16815260200191505060405180910390f35b610ae4611b76565b604051808273ffffffffffffffffffffffffffffffffffffffff1673ffffffffffffffffffffffffffffffffffffffff16815260200191505060405180910390f35b610b6860048036036020811015610b3c57600080fd5b81019080803573ffffffffffffffffffffffffffffffffffffffff169060200190929190505050611b9c565b005b600060405180807f737570706f727473496e74657266616365286279746573342900000000000000815250601901905060405180910390207bffffffffffffffffffffffffffffffffffffffffffffffffffffffff1916827bffffffffffffffffffffffffffffffffffffffffffffffffffffffff19161480610e31575060405180807f746f6b656e4d657461646174612875696e743235362c737472696e6729000000815250601d019050604051809103902060405180807f746f6b656e734f664f776e65722861646472657373290000000000000000000081525060160190506040518091039020604051808061202f602591396025019050604051809103902060405180807f7472616e7366657228616464726573732c75696e7432353629000000000000008152506019019050604051809103902060405180807f617070726f766528616464726573732c75696e743235362900000000000000008152506018019050604051809103902060405180807f6f776e65724f662875696e7432353629000000000000000000000000000000008152506010019050604051809103902060405180807f62616c616e63654f6628616464726573732900000000000000000000000000008152506012019050604051809103902060405180807f746f74616c537570706c79282900000000000000000000000000000000000000815250600d019050604051809103902060405180807f73796d626f6c28290000000000000000000000000000000000000000000000008152506008019050604051809103902060405180807f6e616d6528290000000000000000000000000000000000000000000000000000815250600601905060405180910390201818181818181818187bffffffffffffffffffffffffffffffffffffffffffffffffffffffff1916827bffffffffffffffffffffffffffffffffffffffffffffffffffffffff1916145b9050919050565b600160009054906101000a900473ffffffffffffffffffffffffffffffffffffffff1681565b6060600073ffffffffffffffffffffffffffffffffffffffff16600b60009054906101000a900473ffffffffffffffffffffffffffffffffffffffff1673ffffffffffffffffffffffffffffffffffffffff161415610ebc57600080fd5b610ec461200c565b6000600b60009054906101000a900473ffffffffffffffffffffffffffffffffffffffff1673ffffffffffffffffffffffffffffffffffffffff1663cb4799f28787876040518463ffffffff1660e01b815260040180848152602001806020018281038252848482818152602001925080828437600081840152601f19601f82011690508083019250505094505050505060a06040518083038186803b158015610f6d57600080fd5b505afa158015610f81573d6000803e3d6000fd5b505050506040513d601f19601f8201168201806040525060a0811015610fa657600080fd5b81019080919082608001805190602001909291905050508092508193505050610fcf8282611c39565b925050509392505050565b6040518060400160405280600e81526020017f43727970746f536e65616b65727300000000000000000000000000000000000081525081565b600260149054906101000a900460ff161561102d57600080fd5b6110373382611c95565b61104057600080fd5b61104a8183611d01565b7f8c5be1e5ebec7d5bd14f71427d1e84f3dd0314c0f7b2291e5b200ac8c7c3b925338383604051808473ffffffffffffffffffffffffffffffffffffffff1673ffffffffffffffffffffffffffffffffffffffff1681526020018373ffffffffffffffffffffffffffffffffffffffff1673ffffffffffffffffffffffffffffffffffffffff168152602001828152602001935050505060405180910390a15050565b6000809054906101000a900473ffffffffffffffffffffffffffffffffffffffff1681565b6000600160068054905003905090565b600260149054906101000a900460ff161561113c57600080fd5b600073ffffffffffffffffffffffffffffffffffffffff168273ffffffffffffffffffffffffffffffffffffffff16141561117657600080fd5b3073ffffffffffffffffffffffffffffffffffffffff168273ffffffffffffffffffffffffffffffffffffffff1614156111af57600080fd5b6111b93382611d57565b6111c257600080fd5b6111cc8382611c95565b6111d557600080fd5b6111e0838383611dc3565b505050565b6000809054906101000a900473ffffffffffffffffffffffffffffffffffffffff1673ffffffffffffffffffffffffffffffffffffffff163373ffffffffffffffffffffffffffffffffffffffff161461123e57600080fd5b600073ffffffffffffffffffffffffffffffffffffffff168173ffffffffffffffffffffffffffffffffffffffff16141561127857600080fd5b806000806101000a81548173ffffffffffffffffffffffffffffffffffffffff021916908373ffffffffffffffffffffffffffffffffffffffff16021790555050565b6000809054906101000a900473ffffffffffffffffffffffffffffffffffffffff1673ffffffffffffffffffffffffffffffffffffffff163373ffffffffffffffffffffffffffffffffffffffff161461131457600080fd5b600073ffffffffffffffffffffffffffffffffffffffff168173ffffffffffffffffffffffffffffffffffffffff16141561134e57600080fd5b80600260006101000a81548173ffffffffffffffffffffffffffffffffffffffff021916908373ffffffffffffffffffffffffffffffffffffffff16021790555050565b6000809054906101000a900473ffffffffffffffffffffffffffffffffffffffff1673ffffffffffffffffffffffffffffffffffffffff163373ffffffffffffffffffffffffffffffffffffffff16146113eb57600080fd5b600260149054906101000a900460ff1661140457600080fd5b6000600260146101000a81548160ff021916908315150217905550565b6000809054906101000a900473ffffffffffffffffffffffffffffffffffffffff1673ffffffffffffffffffffffffffffffffffffffff163373ffffffffffffffffffffffffffffffffffffffff161461147a57600080fd5b600073ffffffffffffffffffffffffffffffffffffffff168173ffffffffffffffffffffffffffffffffffffffff1614156114b457600080fd5b80600160006101000a81548173ffffffffffffffffffffffffffffffffffffffff021916908373ffffffffffffffffffffffffffffffffffffffff16021790555050565b6000809054906101000a900473ffffffffffffffffffffffffffffffffffffffff1673ffffffffffffffffffffffffffffffffffffffff163373ffffffffffffffffffffffffffffffffffffffff1614806115a05750600160009054906101000a900473ffffffffffffffffffffffffffffffffffffffff1673ffffffffffffffffffffffffffffffffffffffff163373ffffffffffffffffffffffffffffffffffffffff16145b806115f85750600260009054906101000a900473ffffffffffffffffffffffffffffffffffffffff1673ffffffffffffffffffffffffffffffffffffffff163373ffffffffffffffffffffffffffffffffffffffff16145b61160157600080fd5b60036000600e811061160f57fe5b600891828204019190066004029054906101000a900463ffffffff1663ffffffff16811061163c57600080fd5b8060058190555050565b60096020528060005260406000206000915054906101000a900473ffffffffffffffffffffffffffffffffffffffff1681565b600a818051602081018201805184825260208301602085012081835280955050505050506000915090505481565b600260149054906101000a900460ff1681565b60006007600083815260200190815260200160002060009054906101000a900473ffffffffffffffffffffffffffffffffffffffff169050600073ffffffffffffffffffffffffffffffffffffffff168173ffffffffffffffffffffffffffffffffffffffff16141561172c57600080fd5b919050565b6000600860008373ffffffffffffffffffffffffffffffffffffffff1673ffffffffffffffffffffffffffffffffffffffff168152602001908152602001600020549050919050565b60055481565b6000809054906101000a900473ffffffffffffffffffffffffffffffffffffffff1673ffffffffffffffffffffffffffffffffffffffff163373ffffffffffffffffffffffffffffffffffffffff1614806118285750600160009054906101000a900473ffffffffffffffffffffffffffffffffffffffff1673ffffffffffffffffffffffffffffffffffffffff163373ffffffffffffffffffffffffffffffffffffffff16145b806118805750600260009054906101000a900473ffffffffffffffffffffffffffffffffffffffff1673ffffffffffffffffffffffffffffffffffffffff163373ffffffffffffffffffffffffffffffffffffffff16145b61188957600080fd5b600260149054906101000a900460ff16156118a357600080fd5b6001600260146101000a81548160ff021916908315150217905550565b606060006118cd83611731565b905060008114156119115760006040519080825280602002602001820160405280156119085781602001602082028038833980820191505090505b50915050611a03565b6060816040519080825280602002602001820160405280156119425781602001602082028038833980820191505090505b509050600061194f611112565b905060008090506000600190505b8281116119fa578673ffffffffffffffffffffffffffffffffffffffff166007600083815260200190815260200160002060009054906101000a900473ffffffffffffffffffffffffffffffffffffffff1673ffffffffffffffffffffffffffffffffffffffff1614156119ed57808483815181106119d857fe5b60200260200101818152505081806001019250505b808060010191505061195d565b83955050505050505b919050565b6040518060400160405280600281526020017f435300000000000000000000000000000000000000000000000000000000000081525081565b600381600e8110611a4e57fe5b60089182820401919006600402915054906101000a900463ffffffff1681565b600260149054906101000a900460ff1615611a8857600080fd5b600073ffffffffffffffffffffffffffffffffffffffff168273ffffffffffffffffffffffffffffffffffffffff161415611ac257600080fd5b3073ffffffffffffffffffffffffffffffffffffffff168273ffffffffffffffffffffffffffffffffffffffff161415611afb57600080fd5b611b053382611c95565b611b0e57600080fd5b611b19338383611dc3565b5050565b600260009054906101000a900473ffffffffffffffffffffffffffffffffffffffff1681565b60076020528060005260406000206000915054906101000a900473ffffffffffffffffffffffffffffffffffffffff1681565b600b60009054906101000a900473ffffffffffffffffffffffffffffffffffffffff1681565b6000809054906101000a900473ffffffffffffffffffffffffffffffffffffffff1673ffffffffffffffffffffffffffffffffffffffff163373ffffffffffffffffffffffffffffffffffffffff1614611bf557600080fd5b80600b60006101000a81548173ffffffffffffffffffffffffffffffffffffffff021916908373ffffffffffffffffffffffffffffffffffffffff16021790555050565b606080826040519080825280601f01601f191660200182016040528015611c6f5781602001600182028038833980820191505090505b509050600080602083019150859050611c89828287611fc3565b82935050505092915050565b60008273ffffffffffffffffffffffffffffffffffffffff166007600084815260200190815260200160002060009054906101000a900473ffffffffffffffffffffffffffffffffffffffff1673ffffffffffffffffffffffffffffffffffffffff1614905092915050565b806009600084815260200190815260200160002060006101000a81548173ffffffffffffffffffffffffffffffffffffffff021916908373ffffffffffffffffffffffffffffffffffffffff1602179055505050565b60008273ffffffffffffffffffffffffffffffffffffffff166009600084815260200190815260200160002060009054906101000a900473ffffffffffffffffffffffffffffffffffffffff1673ffffffffffffffffffffffffffffffffffffffff1614905092915050565b600860008373ffffffffffffffffffffffffffffffffffffffff1673ffffffffffffffffffffffffffffffffffffffff16815260200190815260200160002060008154809291906001019190505550816007600083815260200190815260200160002060006101000a81548173ffffffffffffffffffffffffffffffffffffffff021916908373ffffffffffffffffffffffffffffffffffffffff160217905550600073ffffffffffffffffffffffffffffffffffffffff168373ffffffffffffffffffffffffffffffffffffffff1614611f1f57600860008473ffffffffffffffffffffffffffffffffffffffff1673ffffffffffffffffffffffffffffffffffffffff16815260200190815260200160002060008154809291906001900391905055506009600082815260200190815260200160002060006101000a81549073ffffffffffffffffffffffffffffffffffffffff02191690555b7fddf252ad1be2c89b69c2b068fc378daa952ba7f163c4a11628f55a4df523b3ef838383604051808473ffffffffffffffffffffffffffffffffffffffff1673ffffffffffffffffffffffffffffffffffffffff1681526020018373ffffffffffffffffffffffffffffffffffffffff1673ffffffffffffffffffffffffffffffffffffffff168152602001828152602001935050505060405180910390a1505050565b5b60208110611fe75781518352602083019250602082019150602081039050611fc4565b60006001826020036101000a0390508019835116818551168181178652505050505050565b604051806080016040528060049060208202803883398082019150509050509056fe7472616e7366657246726f6d28616464726573732c616464726573732c75696e7432353629a265627a7a72315820a08394a0625b995a3c9846518d2bff095b3e036c045b18fa0f941da66a8b6f1d64736f6c63430005100032",
  "source": "pragma solidity >=0.4.22 <0.9.0;\n\nimport \"./SneakerBase.sol\";\nimport \"./ERC721.sol\";\nimport \"./ERC721Metadata.sol\";\n\n/// @title The fact of CryptoSneakers core contract that manages ownership, ERC-721 (draft compliant).\n/// @author Heriberto Prieto\ncontract SneakerOwnership is SneakerBase, ERC721 {\n\n  /// @notice Name and symbol of the non fungible token, as defined in ERC721.\n  string public constant name = \"CryptoSneakers\";\n  string public constant symbol = \"CS\";\n\n  // The contract that will return Sneaker metadata;\n  ERC721Metadata public erc721Metadata;\n\n  bytes4 constant InterfaceSignature_ERC165 =\n    bytes4(keccak256('supportsInterface(bytes4)'));\n\n  bytes4 constant InterfaceSignature_ERC721 =\n    bytes4(keccak256('name()')) ^\n    bytes4(keccak256('symbol()')) ^\n    bytes4(keccak256('totalSupply()')) ^\n    bytes4(keccak256('balanceOf(address)')) ^\n    bytes4(keccak256('ownerOf(uint256)')) ^\n    bytes4(keccak256('approve(address,uint256)')) ^\n    bytes4(keccak256('transfer(address,uint256)')) ^\n    bytes4(keccak256('transferFrom(address,address,uint256)')) ^\n    bytes4(keccak256('tokensOfOwner(address)')) ^\n    bytes4(keccak256('tokenMetadata(uint256,string)'));\n\n  /// @notice Introspection interface as per ERC-165\n  ///  Returns true for any standardized interfaces implemented by this contract. We implement\n  ///  ERC0165 (obviously!) and ERC-721;\n  function supportsInterface(bytes4 _interfaceID) external view returns (bool) {\n    // DEBUG ONLY\n    //require((InterfaceSignature_ERC165 == 0x01ffc9a7) && (InterfaceSignature_ERC721 == 0x9a20483d));\n    return ((_interfaceID == InterfaceSignature_ERC165) || (_interfaceID == InterfaceSignature_ERC721));\n  }\n\n  /// @dev Set the address of the sibling contract that tracks metadata.\n  ///  CEO only.\n  function setMetadataAddress(address _contractAddress) public onlyCEO {\n    erc721Metadata = ERC721Metadata(_contractAddress);\n  }\n\n  // Internal utility functions: These functions all assume that their input arguments\n  // are valid. We leave it to public methods to sanitize their inputs and follow\n  // the required logic.\n\n  /// @dev Checks if a given address is the current owner of a particular Sneaker.\n  /// @param _claimant The address we are validating against.\n  /// @param _tokenId sneaker id, only valid when > 0\n  function _owns(address _claimant, uint256 _tokenId) internal view returns (bool) {\n    return sneakerIndexToOwner[_tokenId] == _claimant;\n  }\n\n  /// @dev Checks if a given address currently has transferApproval for a particular Sneaker.\n  /// @param _claimant The address we are validating against.\n  /// @param _tokenId Sneaker id, only valid when > 0.\n  function _approvedFor(address _claimant, uint256 _tokenId) internal view returns (bool) {\n    return sneakerIndexToApproved[_tokenId] == _claimant;\n  }\n\n  /// @dev Marks an address as being approved for transferFrom(), overwriting any previous\n  ///  approval. Settings _approved to address(0) clears all transfer approval.\n  ///  NOTE: _approve() does NOT send the Approval event. This is intentional because\n  ///  _approve() and transferFrom() are used together for putting Sneakers on auction, and\n  ///  there is no value in spamming the log with Approval events in that case.\n  function _approve(uint256 _tokenId, address _approved) internal {\n    sneakerIndexToApproved[_tokenId] = _approved;\n  }\n\n  /// @notice Returns the number of Sneakers owned by a specific address.\n  /// @param _owner The owner address to check.\n  /// @dev Required for ERC-721 compliance.\n  function balanceOf(address _owner) public view returns (uint256 count) {\n    return ownershipTokenCount[_owner];\n  }\n\n  /// @notice Transfers a Sneaker to another address. If transferring to a smart\n  ///  contract be VERY CAREFUL to ensure that it is aware of ERC-721 (or\n  ///  CryptoSneakers specifically) or your Sneaker may be lost forever. Seriously.\n  /// @param _to The address of the recipient, can be a user or contract.\n  /// @param _tokenId The ID of the Sneaker to transfer.\n  /// @dev Required for ERC-721 compliance.\n  function transfer(address _to, uint256 _tokenId) external whenNotPaused {\n    // Safety check to prevent against an unexpected 0x0 default.\n    require(_to != address(0));\n    // Disallow transfers to this contract to prevent accidental misuse.\n    // The contract should never own any sneakers (except very briefly\n    // after creation and before it goes on auction).\n    require(_to != address(this));\n    // Disallow transfers to the auction contracts to prevent accidental\n    // misuse. Auction contracts should only take ownership of Sneakers\n    // through the allow + transferFrom flow.\n    // require(_to != address(saleAuction));\n\n    // You can only send your own sneaker.\n    require(_owns(msg.sender, _tokenId));\n\n    // Reassign ownership, clear pending approvals, emit Transfer event.\n    _transfer(msg.sender, _to, _tokenId);\n  }\n\n  /// @notice Grant another address the right to transfer a specific Sneaker via\n  ///  transferFrom(). This is preferred flow for transfering NFTs to contacts.\n  /// @param _to The address to be granted transfer approval. Pass address(0) to\n  ///  clear all approvals.\n  /// @param _tokenId The ID of the Sneaker that can be transferred if this call succeeds.\n  /// @dev Required for ERC-721 compliance.\n  function approve(address _to, uint256 _tokenId) external whenNotPaused {\n    // Only an owner can grant transfer approval.\n    require(_owns(msg.sender, _tokenId));\n\n    // Register the approval (replacing any previous approval).\n    _approve(_tokenId, _to);\n\n    // Emit approval event.\n    emit Approval(msg.sender, _to, _tokenId);\n  }\n\n  /// @notice Transfer a Sneaker owned by another address, for which the calling address\n  ///  has previously been granted transfer approval by the owner.\n  /// @param _from The address that owns the Sneaker to be transferred.\n  /// @param _to The address that should take ownership of the Sneaker. Can be any address,\n  ///  including the caller.\n  /// @param _tokenId The ID of the Sneaker to be transferred.\n  /// @dev Required for ERC-721 compiance.\n  function transferFrom(address _from, address _to, uint256 _tokenId) external whenNotPaused {\n    // Safety check to prevent against an unexpected 0x0 default.\n    require(_to != address(0));\n    // Disallow transfers to this contract to prevent accidental misuse.\n    // The contract should never own any Sneakers (except very briefly\n    // after creation and before it goes on auction).\n    require(_to != address(this));\n    // check for approval and valid ownership\n    require(_approvedFor(msg.sender, _tokenId));\n    require(_owns(_from, _tokenId));\n\n    // Reassign ownership (also clears pending approvals and emits Transfer event).\n    _transfer(_from, _to, _tokenId);\n  }\n\n  // @notice Returns the total number of Sneakers currently in existence.\n  // @dev Required for ERC-721 compliance.\n  function totalSupply() public view returns (uint) {\n    return sneakers.length - 1;\n  }\n\n  /// @notice Returns the total number of Sneakers currently in existence.\n  /// @dev Required for ERC-721 compliance.\n  function ownerOf(uint256 _tokenId) external view returns (address owner) {\n    owner = sneakerIndexToOwner[_tokenId];\n    require(owner != address(0));\n  }\n\n  /// @notice Returns a list of all Sneaker IDs assigned to an address.\n  /// @param _owner The owner whose Sneakers we are interested in.\n  /// @dev This method MUST NEVER be called by smart contract code. First, it's faily\n  ///  expensive (it walks the sntire Sneaker array looking for sneakers belonging to the owner.,\n  ///  but it also returns a dynamic array, which is only supported for web3 calls, and\n  ///  not contract-to-contract calls.\n  function tokensOfOwner(address _owner) external view returns(uint256[] memory ownerTokens) {\n    uint256 tokenCount = balanceOf(_owner);\n\n    if (tokenCount == 0) {\n      // Return an empty array.\n      return new uint256[](0);\n    } else {\n      uint256[] memory result = new uint256[](tokenCount);\n      uint256 totalSneakers = totalSupply();\n      uint256 resultIndex = 0;\n\n      // We count on the fact that all cats have IDs starting at 1 and increasing\n      // sequentially up to the totalSneaker count.\n      uint256 sneakerId;\n\n      for (sneakerId = 1; sneakerId <= totalSneakers; sneakerId++) {\n        if (sneakerIndexToOwner[sneakerId] == _owner) {\n          result[resultIndex] = sneakerId;\n          resultIndex++;\n        }\n      }\n\n      return result;\n    }\n  }\n\n  /// @dev Adapted from memcpy() by @hprieto\n  function _memcpy(uint _dest, uint _src, uint _len) private view {\n    // Copy word-length chucks while possible.\n    for(; _len >= 32; _len -= 32) {\n      assembly {\n        mstore(_dest, mload(_src))\n      }\n      _dest += 32;\n      _src += 32;\n    }\n\n    // Copy remaining bytes\n    uint256 mask = 256 ** (32 - _len) - 1;\n    assembly {\n      let srcpart := and(mload(_src), not(mask))\n      let destpart := and(mload(_dest), mask)\n      mstore(_dest, or(destpart, srcpart))\n    }\n  }\n\n  /// @dev Adapted from toString(slice) by @hprieto\n  function _toString(bytes32[4] memory _rawBytes, uint256 _stringLength) private view returns (string memory) {\n    string memory outputString = new string(_stringLength);\n    uint256 outputPtr;\n    uint256 bytesPtr;\n\n    assembly {\n      outputPtr := add(outputString, 32)\n      bytesPtr := _rawBytes\n    }\n\n    _memcpy(outputPtr, bytesPtr, _stringLength);\n\n    return outputString;\n  }\n\n  /// @notice Returns a URI pointing to a metadata package for this token conforming to\n  ///  ERC-721 (https://github.com/ethereum/EIPs/issues/721)\n  /// @param _tokenId The ID number of the Sneaker whose metadata should be returned.\n  function tokenMetadata(uint256 _tokenId, string calldata _preferredTransport) external view returns (string memory infoUrl) {\n    require(address(erc721Metadata) != address(0));\n    bytes32[4] memory buffer;\n    uint256 count;\n    (buffer, count) = erc721Metadata.getMetadata(_tokenId, _preferredTransport);\n\n    return _toString(buffer, count);\n  }\n}\n",
  "sourcePath": "/Users/hprieto/Dev/crypto_sneakers/contracts/SneakerOwnership.sol",
  "compiler": {
    "name": "solc",
    "version": "0.5.16+commit.9c3226ce.Emscripten.clang"
  },
  "schemaVersion": "3.3.4",
  "updatedAt": "2021-03-29T11:47:11.848Z",
  "devdoc": {
    "author": "Heriberto Prieto",
    "methods": {
      "approve(address,uint256)": {
        "details": "Required for ERC-721 compliance.",
        "params": {
          "_to": "The address to be granted transfer approval. Pass address(0) to  clear all approvals.",
          "_tokenId": "The ID of the Sneaker that can be transferred if this call succeeds."
        }
      },
      "balanceOf(address)": {
        "details": "Required for ERC-721 compliance.",
        "params": {
          "_owner": "The owner address to check."
        }
      },
      "ownerOf(uint256)": {
        "details": "Required for ERC-721 compliance."
      },
      "pause()": {
        "details": "Called by any \"C-Level\" role to pause the contract. Used only when  a bug or exploited is detected and we need to limit damage."
      },
      "setCEO(address)": {
        "details": "Assigns a new address to act as the CEO. Only available to the current CEO.",
        "params": {
          "_newCEO": "The address of the new CEO."
        }
      },
      "setCFO(address)": {
        "details": "Assigns a new address to act as the CFO. Only available to the current CEO.",
        "params": {
          "_newCFO": "The address of the new CFO."
        }
      },
      "setCOO(address)": {
        "details": "Assigns a new address to act as the COO. Only available to the current CEO.",
        "params": {
          "_newCOO": "The address of the new COO."
        }
      },
      "setMetadataAddress(address)": {
        "details": "Set the address of the sibling contract that tracks metadata.  CEO only."
      },
      "tokenMetadata(uint256,string)": {
        "params": {
          "_tokenId": "The ID number of the Sneaker whose metadata should be returned."
        }
      },
      "tokensOfOwner(address)": {
        "details": "This method MUST NEVER be called by smart contract code. First, it's faily  expensive (it walks the sntire Sneaker array looking for sneakers belonging to the owner.,  but it also returns a dynamic array, which is only supported for web3 calls, and  not contract-to-contract calls.",
        "params": {
          "_owner": "The owner whose Sneakers we are interested in."
        }
      },
      "transfer(address,uint256)": {
        "details": "Required for ERC-721 compliance.",
        "params": {
          "_to": "The address of the recipient, can be a user or contract.",
          "_tokenId": "The ID of the Sneaker to transfer."
        }
      },
      "transferFrom(address,address,uint256)": {
        "details": "Required for ERC-721 compiance.",
        "params": {
          "_from": "The address that owns the Sneaker to be transferred.",
          "_to": "The address that should take ownership of the Sneaker. Can be any address,  including the caller.",
          "_tokenId": "The ID of the Sneaker to be transferred."
        }
      },
      "unpause()": {
        "details": "Unpauses the smart contract. Can only be called by the CEO, since  one reason we may pause the contract is when CFO or COO accounts are  compromised."
      }
    },
    "title": "The fact of CryptoSneakers core contract that manages ownership, ERC-721 (draft compliant)."
  },
  "userdoc": {
    "methods": {
      "approve(address,uint256)": {
        "notice": "Grant another address the right to transfer a specific Sneaker via  transferFrom(). This is preferred flow for transfering NFTs to contacts."
      },
      "balanceOf(address)": {
        "notice": "Returns the number of Sneakers owned by a specific address."
      },
      "ownerOf(uint256)": {
        "notice": "Returns the total number of Sneakers currently in existence."
      },
      "supportsInterface(bytes4)": {
        "notice": "Introspection interface as per ERC-165  Returns true for any standardized interfaces implemented by this contract. We implement  ERC0165 (obviously!) and ERC-721;"
      },
      "tokenMetadata(uint256,string)": {
        "notice": "Returns a URI pointing to a metadata package for this token conforming to  ERC-721 (https://github.com/ethereum/EIPs/issues/721)"
      },
      "tokensOfOwner(address)": {
        "notice": "Returns a list of all Sneaker IDs assigned to an address."
      },
      "transfer(address,uint256)": {
        "notice": "Transfers a Sneaker to another address. If transferring to a smart  contract be VERY CAREFUL to ensure that it is aware of ERC-721 (or  CryptoSneakers specifically) or your Sneaker may be lost forever. Seriously."
      },
      "transferFrom(address,address,uint256)": {
        "notice": "Transfer a Sneaker owned by another address, for which the calling address  has previously been granted transfer approval by the owner."
      },
      "unpause()": {
        "notice": "This is public rather than external so it can be called by  derived contracts."
      }
    }
  }
}