{
  "contractName": "SneakerBase",
  "abi": [
    {
      "anonymous": false,
      "inputs": [
        {
          "indexed": false,
          "internalType": "address",
          "name": "newContract",
          "type": "address"
        }
      ],
      "name": "ContractUpgrade",
      "type": "event"
    },
    {
      "anonymous": false,
      "inputs": [
        {
          "indexed": false,
          "internalType": "address",
          "name": "from",
          "type": "address"
        },
        {
          "indexed": false,
          "internalType": "address",
          "name": "to",
          "type": "address"
        },
        {
          "indexed": false,
          "internalType": "uint256",
          "name": "tokenId",
          "type": "uint256"
        }
      ],
      "name": "Transfer",
      "type": "event"
    },
    {
      "constant": true,
      "inputs": [],
      "name": "ceoAddress",
      "outputs": [
        {
          "internalType": "address",
          "name": "",
          "type": "address"
        }
      ],
      "payable": false,
      "stateMutability": "view",
      "type": "function"
    },
    {
      "constant": true,
      "inputs": [],
      "name": "cfoAddress",
      "outputs": [
        {
          "internalType": "address",
          "name": "",
          "type": "address"
        }
      ],
      "payable": false,
      "stateMutability": "view",
      "type": "function"
    },
    {
      "constant": true,
      "inputs": [],
      "name": "cooAddress",
      "outputs": [
        {
          "internalType": "address",
          "name": "",
          "type": "address"
        }
      ],
      "payable": false,
      "stateMutability": "view",
      "type": "function"
    },
    {
      "constant": true,
      "inputs": [
        {
          "internalType": "uint256",
          "name": "",
          "type": "uint256"
        }
      ],
      "name": "cooldowns",
      "outputs": [
        {
          "internalType": "uint32",
          "name": "",
          "type": "uint32"
        }
      ],
      "payable": false,
      "stateMutability": "view",
      "type": "function"
    },
    {
      "constant": false,
      "inputs": [],
      "name": "pause",
      "outputs": [],
      "payable": false,
      "stateMutability": "nonpayable",
      "type": "function"
    },
    {
      "constant": true,
      "inputs": [],
      "name": "paused",
      "outputs": [
        {
          "internalType": "bool",
          "name": "",
          "type": "bool"
        }
      ],
      "payable": false,
      "stateMutability": "view",
      "type": "function"
    },
    {
      "constant": true,
      "inputs": [],
      "name": "secondsPerBlock",
      "outputs": [
        {
          "internalType": "uint256",
          "name": "",
          "type": "uint256"
        }
      ],
      "payable": false,
      "stateMutability": "view",
      "type": "function"
    },
    {
      "constant": false,
      "inputs": [
        {
          "internalType": "address",
          "name": "_newCEO",
          "type": "address"
        }
      ],
      "name": "setCEO",
      "outputs": [],
      "payable": false,
      "stateMutability": "nonpayable",
      "type": "function"
    },
    {
      "constant": false,
      "inputs": [
        {
          "internalType": "address",
          "name": "_newCFO",
          "type": "address"
        }
      ],
      "name": "setCFO",
      "outputs": [],
      "payable": false,
      "stateMutability": "nonpayable",
      "type": "function"
    },
    {
      "constant": false,
      "inputs": [
        {
          "internalType": "address",
          "name": "_newCOO",
          "type": "address"
        }
      ],
      "name": "setCOO",
      "outputs": [],
      "payable": false,
      "stateMutability": "nonpayable",
      "type": "function"
    },
    {
      "constant": true,
      "inputs": [
        {
          "internalType": "uint256",
          "name": "",
          "type": "uint256"
        }
      ],
      "name": "sneakerIndexToApproved",
      "outputs": [
        {
          "internalType": "address",
          "name": "",
          "type": "address"
        }
      ],
      "payable": false,
      "stateMutability": "view",
      "type": "function"
    },
    {
      "constant": true,
      "inputs": [
        {
          "internalType": "uint256",
          "name": "",
          "type": "uint256"
        }
      ],
      "name": "sneakerIndexToOwner",
      "outputs": [
        {
          "internalType": "address",
          "name": "",
          "type": "address"
        }
      ],
      "payable": false,
      "stateMutability": "view",
      "type": "function"
    },
    {
      "constant": true,
      "inputs": [
        {
          "internalType": "string",
          "name": "",
          "type": "string"
        }
      ],
      "name": "stockXTickerToSneaker",
      "outputs": [
        {
          "internalType": "uint256",
          "name": "",
          "type": "uint256"
        }
      ],
      "payable": false,
      "stateMutability": "view",
      "type": "function"
    },
    {
      "constant": false,
      "inputs": [],
      "name": "unpause",
      "outputs": [],
      "payable": false,
      "stateMutability": "nonpayable",
      "type": "function"
    }
  ],
  "bytecode": "0x60806040526000600260146101000a81548160ff021916908315150217905550604051806101c00160405280603c63ffffffff1663ffffffff168152602001607863ffffffff1663ffffffff16815260200161012c63ffffffff1663ffffffff16815260200161025863ffffffff1663ffffffff16815260200161070863ffffffff1663ffffffff168152602001610e1063ffffffff1663ffffffff168152602001611c2063ffffffff1663ffffffff16815260200161384063ffffffff1663ffffffff16815260200161708063ffffffff1663ffffffff16815260200161e10063ffffffff1663ffffffff1681526020016201518063ffffffff1663ffffffff1681526020016202a30063ffffffff1663ffffffff1681526020016205460063ffffffff1663ffffffff16815260200162093a8063ffffffff1663ffffffff16815250600390600e61015392919061016b565b50600f60055534801561016557600080fd5b50610241565b82600e6007016008900481019282156101fd5791602002820160005b838211156101cb57835183826101000a81548163ffffffff021916908363ffffffff1602179055509260200192600401602081600301049283019260010302610187565b80156101fb5782816101000a81549063ffffffff02191690556004016020816003010492830192600103026101cb565b505b50905061020a919061020e565b5090565b61023e91905b8082111561023a57600081816101000a81549063ffffffff021916905550600101610214565b5090565b90565b610ab9806102506000396000f3fe608060405234801561001057600080fd5b50600436106100ea5760003560e01c80635b8eea2c1161008c5780638456cb59116100665780638456cb59146103d65780639d6fac6f146103e0578063b047fb501461042e578063b82effce14610478576100ea565b80635b8eea2c146102c75780635c975abb146103965780637a7d4937146103b8576100ea565b80632ba73c15116100c85780632ba73c15146101c75780633f4ba83a1461020b5780634e0a33791461021557806358511bf214610259576100ea565b80630519ce79146100ef5780630a0f81681461013957806327d7874c14610183575b600080fd5b6100f76104e6565b604051808273ffffffffffffffffffffffffffffffffffffffff1673ffffffffffffffffffffffffffffffffffffffff16815260200191505060405180910390f35b61014161050c565b604051808273ffffffffffffffffffffffffffffffffffffffff1673ffffffffffffffffffffffffffffffffffffffff16815260200191505060405180910390f35b6101c56004803603602081101561019957600080fd5b81019080803573ffffffffffffffffffffffffffffffffffffffff169060200190929190505050610531565b005b610209600480360360208110156101dd57600080fd5b81019080803573ffffffffffffffffffffffffffffffffffffffff169060200190929190505050610607565b005b6102136106de565b005b6102576004803603602081101561022b57600080fd5b81019080803573ffffffffffffffffffffffffffffffffffffffff16906020019092919050505061076d565b005b6102856004803603602081101561026f57600080fd5b8101908080359060200190929190505050610844565b604051808273ffffffffffffffffffffffffffffffffffffffff1673ffffffffffffffffffffffffffffffffffffffff16815260200191505060405180910390f35b610380600480360360208110156102dd57600080fd5b81019080803590602001906401000000008111156102fa57600080fd5b82018360208201111561030c57600080fd5b8035906020019184600183028401116401000000008311171561032e57600080fd5b91908080601f016020809104026020016040519081016040528093929190818152602001838380828437600081840152601f19601f820116905080830192505050505050509192919290505050610877565b6040518082815260200191505060405180910390f35b61039e6108a5565b604051808215151515815260200191505060405180910390f35b6103c06108b8565b6040518082815260200191505060405180910390f35b6103de6108be565b005b61040c600480360360208110156103f657600080fd5b81019080803590602001909291905050506109fe565b604051808263ffffffff1663ffffffff16815260200191505060405180910390f35b610436610a2b565b604051808273ffffffffffffffffffffffffffffffffffffffff1673ffffffffffffffffffffffffffffffffffffffff16815260200191505060405180910390f35b6104a46004803603602081101561048e57600080fd5b8101908080359060200190929190505050610a51565b604051808273ffffffffffffffffffffffffffffffffffffffff1673ffffffffffffffffffffffffffffffffffffffff16815260200191505060405180910390f35b600160009054906101000a900473ffffffffffffffffffffffffffffffffffffffff1681565b6000809054906101000a900473ffffffffffffffffffffffffffffffffffffffff1681565b6000809054906101000a900473ffffffffffffffffffffffffffffffffffffffff1673ffffffffffffffffffffffffffffffffffffffff163373ffffffffffffffffffffffffffffffffffffffff161461058a57600080fd5b600073ffffffffffffffffffffffffffffffffffffffff168173ffffffffffffffffffffffffffffffffffffffff1614156105c457600080fd5b806000806101000a81548173ffffffffffffffffffffffffffffffffffffffff021916908373ffffffffffffffffffffffffffffffffffffffff16021790555050565b6000809054906101000a900473ffffffffffffffffffffffffffffffffffffffff1673ffffffffffffffffffffffffffffffffffffffff163373ffffffffffffffffffffffffffffffffffffffff161461066057600080fd5b600073ffffffffffffffffffffffffffffffffffffffff168173ffffffffffffffffffffffffffffffffffffffff16141561069a57600080fd5b80600260006101000a81548173ffffffffffffffffffffffffffffffffffffffff021916908373ffffffffffffffffffffffffffffffffffffffff16021790555050565b6000809054906101000a900473ffffffffffffffffffffffffffffffffffffffff1673ffffffffffffffffffffffffffffffffffffffff163373ffffffffffffffffffffffffffffffffffffffff161461073757600080fd5b600260149054906101000a900460ff1661075057600080fd5b6000600260146101000a81548160ff021916908315150217905550565b6000809054906101000a900473ffffffffffffffffffffffffffffffffffffffff1673ffffffffffffffffffffffffffffffffffffffff163373ffffffffffffffffffffffffffffffffffffffff16146107c657600080fd5b600073ffffffffffffffffffffffffffffffffffffffff168173ffffffffffffffffffffffffffffffffffffffff16141561080057600080fd5b80600160006101000a81548173ffffffffffffffffffffffffffffffffffffffff021916908373ffffffffffffffffffffffffffffffffffffffff16021790555050565b60096020528060005260406000206000915054906101000a900473ffffffffffffffffffffffffffffffffffffffff1681565b600a818051602081018201805184825260208301602085012081835280955050505050506000915090505481565b600260149054906101000a900460ff1681565b60055481565b6000809054906101000a900473ffffffffffffffffffffffffffffffffffffffff1673ffffffffffffffffffffffffffffffffffffffff163373ffffffffffffffffffffffffffffffffffffffff1614806109665750600160009054906101000a900473ffffffffffffffffffffffffffffffffffffffff1673ffffffffffffffffffffffffffffffffffffffff163373ffffffffffffffffffffffffffffffffffffffff16145b806109be5750600260009054906101000a900473ffffffffffffffffffffffffffffffffffffffff1673ffffffffffffffffffffffffffffffffffffffff163373ffffffffffffffffffffffffffffffffffffffff16145b6109c757600080fd5b600260149054906101000a900460ff16156109e157600080fd5b6001600260146101000a81548160ff021916908315150217905550565b600381600e8110610a0b57fe5b60089182820401919006600402915054906101000a900463ffffffff1681565b600260009054906101000a900473ffffffffffffffffffffffffffffffffffffffff1681565b60076020528060005260406000206000915054906101000a900473ffffffffffffffffffffffffffffffffffffffff168156fea265627a7a72315820d6e88777c0c388264fdeeab311eea282c15c26dd5efdf23211071e9d13c67e5d64736f6c63430005100032",
  "source": "pragma solidity >=0.4.22 <0.9.0;\n\nimport \"./AccessControl.sol\";\n\n/// @title Base contract for CryptoSneakers. Holds all common structs, events and base variables.\n/// @author Heriberto Prieto\n/// @dev See the SneakerCore contract documentation to understand how the various contract facets are arranged.\ncontract SneakerBase is AccessControl {\n  /*** EVENTS ***/\n\n  /// @dev Transfer event as defined in current draft of ERC721. Emitted every time a kitten\n  ///  ownership is assigned, including births.\n  event Transfer(address from, address to, uint256 tokenId);\n\n  /*** DATA TYPES ***/\n\n  /// @dev The main Sneaker struct. Every Sneaker in CryptoSneakers is represented by a copy\n  ///  of this structure, so great care was taken to ensure that it fits neatly into\n  ///  exactly two 256-bit words. Note that the order of the members in this structure\n  ///  is important because of the byte-packing rules used by Ethereum.\n  /// @note Example sneaker can be found in: https://stockx.com/air-jordan-1-retro-high-patina\n  struct Sneaker {\n    // Name of the sneaker.\n    // Example: 'Jordan 1 Retro High Patina'\n    string name;\n\n    // Brand of the sneaker.\n    // Example: Nike\n    string brand;\n\n    // Size of specific sneaker.\n    // Example: 10.5\n    uint64 size;\n\n    // Plant where sneaker was manufactured.\n    // Example: XC\n    string plant;\n\n    // Date when sneaker was manufactured.\n    // Example: 01/05/2020 converted to timestamp.\n    uint64 manufactureDate;\n\n    // Style code assigned by manufacturer;\n    // Example: 555088-033\n    string style;\n\n    // Colorway of the sneaker.\n    // Example: BLACK/GREY-RUST\n    string colorWay;\n\n    // Price of sneaker set by manufacturer on release.\n    // Example: 170\n    uint32 retailPrice;\n\n    // The date when sneaker was release on retail.\n    // Example: 03/25/2021 converted to timestamp.\n    uint64 releaseDate;\n\n    // Unique code assigned to each sneaker by StockX.\n    // Example: JB-JO1RHRSBG\n    string stockXTicker;\n  }\n\n  /// @dev A lookup table indicating the cooldown duration after any successful\n  ///  action requiring cooldown.\n  uint32[14] public cooldowns = [\n    uint32(1 minutes),\n    uint32(2 minutes),\n    uint32(5 minutes),\n    uint32(10 minutes),\n    uint32(30 minutes),\n    uint32(1 hours),\n    uint32(2 hours),\n    uint32(4 hours),\n    uint32(8 hours),\n    uint32(16 hours),\n    uint32(1 days),\n    uint32(2 days),\n    uint32(4 days),\n    uint32(7 days)\n  ];\n\n  // An approximation of currently how many seconds are in between blocks.\n  uint256 public secondsPerBlock = 15;\n\n  /*** STORAGE ***/\n\n  /// @dev An array containing the Sneaker struct for all Sneakers in existence. The ID\n  ///  of each sneaker is actually an index into this array.\n  Sneaker[] sneakers;\n\n  /// @dev A mapping from sneaker IDs to the address that owns them. All sneakers have\n  ///  some valid owner address.\n  mapping (uint256 => address) public sneakerIndexToOwner;\n\n  /// @dev A mapping from owner address to count of tokens that address owns.\n  ///  Used internally inside balanceOf() to resolve ownership count.\n  mapping (address => uint256) ownershipTokenCount;\n\n  /// @dev A mapping from SneakerIDs to an address that has been approved to call\n  ///  transferFrom(). Each Sneaker can only have one approved address for transfer\n  ///  at any time. A zero value means no approval is outstanding.\n  mapping (uint256 => address) public sneakerIndexToApproved;\n\n  /// @dev A mapping from Sneaker StockX ticker to SneakerID. Each StockX ticker can only\n  ///  be assigned to a specific sneaker.\n  mapping (string => uint256) public stockXTickerToSneaker;\n\n  /// @dev The address of the ClockAuction contract that handles sales of Sneakers. This\n  ///  same contract handles both peer-to-peer sales.\n  // SaleClockAuction public saleAuction;\n  // TODO: Create SaleClockAuction contract.\n\n  /// @dev Assigns ownership of a specific Sneaker to an address.\n  function _transfer(address _from, address _to, uint256 _tokenId) internal {\n    // Since the number of sneakers is capped to 2^32 we can't overflow this\n    ownershipTokenCount[_to]++;\n    // transfer ownership.\n    sneakerIndexToOwner[_tokenId] = _to;\n    // When creating new sneakers _from is 0x0, but we can't account that address.\n    if (_from != address(0)) {\n      ownershipTokenCount[_from]--;\n      // clear any previously approved ownership exchange.\n      delete sneakerIndexToApproved[_tokenId];\n    }\n    // Emit the transfer event.\n    emit Transfer(_from, _to, _tokenId);\n  }\n}\n",
  "sourcePath": "/Users/hprieto/Dev/crypto_sneakers/contracts/SneakerBase.sol",
  "compiler": {
    "name": "solc",
    "version": "0.5.16+commit.9c3226ce.Emscripten.clang"
  },
  "schemaVersion": "3.3.4",
  "updatedAt": "2021-03-28T07:12:22.829Z",
  "devdoc": {
    "author": "Heriberto Prieto",
    "details": "See the SneakerCore contract documentation to understand how the various contract facets are arranged.",
    "methods": {
      "pause()": {
        "details": "Called by any \"C-Level\" role to pause the contract. Used only when  a bug or exploited is detected and we need to limit damage."
      },
      "setCEO(address)": {
        "details": "Assigns a new address to act as the CEO. Only available to the current CEO.",
        "params": {
          "_newCEO": "The address of the new CEO."
        }
      },
      "setCFO(address)": {
        "details": "Assigns a new address to act as the CFO. Only available to the current CEO.",
        "params": {
          "_newCFO": "The address of the new CFO."
        }
      },
      "setCOO(address)": {
        "details": "Assigns a new address to act as the COO. Only available to the current CEO.",
        "params": {
          "_newCOO": "The address of the new COO."
        }
      },
      "unpause()": {
        "details": "Unpauses the smart contract. Can only be called by the CEO, since  one reason we may pause the contract is when CFO or COO accounts are  compromised."
      }
    },
    "title": "Base contract for CryptoSneakers. Holds all common structs, events and base variables."
  },
  "userdoc": {
    "methods": {
      "unpause()": {
        "notice": "This is public rather than external so it can be called by  derived contracts."
      }
    }
  }
}